:020000040800F2
:10000000000002203D4000083D3F0008433F00083B
:10001000493F00084F3F0008553F0008000000001E
:1000200000000000000000000000000071B20008A5
:100030005B3F000800000000C1B40008F18E00081A
:100040008D4000088D4000088D4000088D4000085C
:100050008D4000088D4000088D4000088D4000084C
:100060008D4000088D4000088D4000088D4000083C
:100070008D4000088D4000088D4000088D4000082C
:100080008D4000088D4000088D4000088D4000081C
:100090008D4000088D4000088D4000088D4000080C
:1000A0008D4000088D4000088D400008693F000821
:1000B0008D4000088D4000088D4000088D400008EC
:1000C0008D4000088D4000088D4000088D400008DC
:1000D0008D4000088D4000088D4000087D3F0008DD
:1000E0008D4000088D4000088D4000088D400008BC
:1000F0008D400008913F00088D4000088D400008A9
:100100008D4000088D4000088D4000088D4000089B
:100110008D4000088D4000088D4000088D4000088B
:100120008D4000088D4000088D4000088D4000087B
:100130008D4000088D4000088D4000088D4000086B
:100140008D4000088D4000088D4000088D4000085B
:100150008D4000088D4000088D4000088D4000084B
:100160008D4000088D4000088D4000088D4000083B
:100170008D4000088D4000088D4000080000000000
:080180008D4000088D400008CD
:1001900010B5054C237833B9044B13B10448AFF3C1
:1001A00000800123237010BD7800002000000000B3
:1001B000BC0E010808B5034B1BB103490348AFF35C
:1001C000008008BD000000007C000020BC0E01087B
:1001D00001F0FF01102A2BDB10F0070F08D010F8F8
:1001E000013B013A8B422DD010F0070F42B3F6D1FC
:1001F000F0B441EA012141EA014122F007047FF015
:1002000000070023F0E80256083C85EA010586EA6B
:10021000010685FA47F5A3FA87F586FA47F6A5FAA7
:1002200087F68EB9EED1F0BC01F0FF0102F00702B3
:1002300032B110F8013B013A83EA010313B1F8D15E
:100240000020704701387047002D06BF354603383F
:10025000073815F0010F07D1013015F4807F02BF78
:10026000013015F4C03F0130F0BC0138704700BFC9
:1002700081F0004102E000BF83F0004330B54FEA57
:1002800041044FEA430594EA050F08BF90EA020FC4
:100290001FBF54EA000C55EA020C7FEA645C7FEA57
:1002A000655C00F0E2804FEA5454D4EB5555B8BF7A
:1002B0006D420CDD2C4480EA020281EA030382EAEB
:1002C000000083EA010180EA020281EA0303362D7D
:1002D00088BF30BD11F0004F4FEA01314FF4801C50
:1002E0004CEA113102D0404261EB410113F0004F62
:1002F0004FEA03334CEA133302D0524263EB430319
:1003000094EA050F00F0A780A4F10104D5F1200EB6
:100310000DDB02FA0EFC22FA05F2801841F1000111
:1003200003FA0EF2801843FA05F359410EE0A5F1E5
:1003300020050EF1200E012A03FA0EFC28BF4CF016
:10034000020C43FA05F3C01851EBE37101F00045CC
:1003500007D54FF0000EDCF1000C7EEB00006EEBD9
:100360000101B1F5801F1BD3B1F5001F0CD3490863
:100370005FEA30004FEA3C0C04F101044FEA4452BA
:1003800012F5800F80F09A80BCF1004F08BF5FEA41
:10039000500C50F1000041EB045141EA050130BD21
:1003A0005FEA4C0C404141EB0101013C28BFB1F533
:1003B000801FE9D291F0000F04BF01460020B1FA7E
:1003C00081F308BF2033A3F10B03B3F120020CDA51
:1003D0000C3208DD02F1140CC2F10C0201FA0CF02F
:1003E00021FA02F10CE002F11402D8BFC2F1200C94
:1003F00001FA02F120FA0CFCDCBF41EA0C0190404A
:10040000E41AA2BF01EB0451294330BD6FEA040492
:100410001F3C1CDA0C340EDC04F11404C4F120027D
:1004200020FA04F001FA02F340EA030021FA04F38F
:1004300045EA030130BDC4F10C04C4F1200220FAE6
:1004400002F001FA04F340EA0300294630BD21FA24
:1004500004F0294630BD94F0000F83F4801306BFEA
:1004600081F480110134013D4EE77FEA645C18BFDE
:100470007FEA655C29D094EA050F08BF90EA020F75
:1004800005D054EA000C04BF1946104630BD91EA6D
:10049000030F1EBF0021002030BD5FEA545C05D170
:1004A0004000494128BF41F0004130BD14F58004AF
:1004B0003CBF01F5801130BD01F0004545F0FE4123
:1004C00041F470014FF0000030BD7FEA645C1ABF58
:1004D000194610467FEA655C1CBF0B46024650EA8F
:1004E000013406BF52EA033591EA030F41F40021BB
:1004F00030BD00BF90F0000F04BF0021704730B541
:100500004FF4806404F132044FF000054FF0000115
:1005100050E700BF90F0000F04BF0021704730B5D6
:100520004FF4806404F1320410F0004548BF4042AB
:100530004FF000013EE700BF42004FEAE2014FEA00
:1005400031014FEA02701FBF12F07F4393F07F4FDB
:1005500081F06051704732F07F4208BF704793F0DE
:100560007F4F04BF41F40021704730B54FF46074F1
:1005700001F0004521F000411CE700BF50EA0102F4
:1005800008BF704730B54FF000050AE050EA01029D
:1005900008BF704730B511F0004502D5404261EB0D
:1005A00041014FF4806404F132045FEA915C3FF44E
:1005B000D8AE4FF003025FEADC0C18BF03325FEAEB
:1005C000DC0C18BF033202EBDC02C2F1200300FA9C
:1005D00003FC20FA02F001FA03FE40EA0E0021FAC1
:1005E00002F11444BDE600BF70B54FF0FF0C4CF4AF
:1005F000E06C1CEA11541DBF1CEA135594EA0C0F61
:1006000095EA0C0F00F0DEF82C4481EA030621EA9B
:100610004C5123EA4C5350EA013518BF52EA0335D6
:1006200041F4801143F4801338D0A0FB02CE4FF088
:100630000005E1FB02E506F00042E0FB03E54FF0B8
:100640000006E1FB03569CF0000F18BF4EF0010EB0
:10065000A4F1FF04B6F5007F64F5407404D25FEAAC
:100660004E0E6D4146EB060642EAC62141EA55515F
:100670004FEAC52040EA5E504FEACE2EB4F1FD0CA1
:1006800088BFBCF5E06F1ED8BEF1004F08BF5FEA1F
:10069000500E50F1000041EB045170BD06F00046D1
:1006A00046EA010140EA020081EA0301B4EB5C047E
:1006B000C2BFD4EB0C0541EA045170BD41F4801176
:1006C0004FF0000E013C00F3AB8014F1360FDEBF9B
:1006D000002001F0004170BDC4F10004203C35DA77
:1006E0000C341BDC04F11404C4F1200500FA05F3FA
:1006F00020FA04F001FA05F240EA020001F000429B
:1007000021F0004110EBD37021FA04F642EB060110
:100710005EEA430E08BF20EAD37070BDC4F10C043A
:10072000C4F1200500FA04F320FA05F001FA04F2FE
:1007300040EA020001F0004110EBD37041F10001EA
:100740005EEA430E08BF20EAD37070BDC4F12005F5
:1007500000FA05F24EEA020E20FA04F301FA05F25D
:1007600043EA020321FA04F001F0004121FA04F205
:1007700020EA020000EBD3705EEA430E08BF20EAD5
:10078000D37070BD94F0000F0FD101F0004640000F
:1007900041EB010111F4801F08BF013CF7D041EA91
:1007A000060195F0000F18BF704703F00046520095
:1007B00043EB030313F4801F08BF013DF7D043EA66
:1007C0000603704794EA0C0F0CEA135518BF95EA1C
:1007D0000C0F0CD050EA410618BF52EA4306D1D1A3
:1007E00081EA030101F000414FF0000070BD50EAC2
:1007F000410606BF1046194652EA430619D094EA4C
:100800000C0F02D150EA013613D195EA0C0F05D135
:1008100052EA03361CBF104619460AD181EA030189
:1008200001F0004141F0FE4141F470014FF0000041
:1008300070BD41F0FE4141F4780170BD70B54FF0DC
:10084000FF0C4CF4E06C1CEA11541DBF1CEA13555C
:1008500094EA0C0F95EA0C0F00F0A7F8A4EB05043E
:1008600081EA030E52EA03354FEA013100F0888035
:100870004FEA03334FF0805545EA131343EA1263FE
:100880004FEA022245EA111545EA10654FEA0026B3
:100890000EF000419D4208BF964244F1FD0404F56C
:1008A000407402D25B084FEA3202B61A65EB0305C8
:1008B0005B084FEA32024FF480104FF4002CB6EB85
:1008C000020E75EB030E22BFB61A754640EA0C0005
:1008D0005B084FEA3202B6EB020E75EB030E22BF45
:1008E000B61A754640EA5C005B084FEA3202B6EB86
:1008F000020E75EB030E22BFB61A754640EA9C0045
:100900005B084FEA3202B6EB020E75EB030E22BF14
:10091000B61A754640EADC0055EA060E18D04FEAD2
:10092000051545EA16754FEA06164FEAC30343EA72
:1009300052734FEAC2025FEA1C1CC0D111F4801F3F
:100940000BD141EA00014FF000004FF0004CB6E738
:1009500011F4801F04BF01430020B4F1FD0C88BFD7
:10096000BCF5E06F3FF6AFAEB5EB030C04BFB6EBE2
:10097000020C5FEA500C50F1000041EB045170BDD5
:100980000EF0004E4EEA113114EB5C04C2BFD4EB02
:100990000C0541EA045170BD41F480114FF0000E86
:1009A000013C90E645EA060E8DE60CEA135594EA02
:1009B0000C0F08BF95EA0C0F3FF43BAF94EA0C0F05
:1009C0000AD150EA01347FF434AF95EA0C0F7FF47A
:1009D00025AF104619462CE795EA0C0F06D152EACE
:1009E00003353FF4FDAE1046194622E750EA4106B2
:1009F00018BF52EA43067FF4C5AE50EA41047FF4C3
:100A00000DAF52EA43057FF4EBAE12E74FF0FF3C27
:100A100006E000BF4FF0010C02E000BF4FF0010CF8
:100A20004DF804CD4FEA410C7FEA6C5C4FEA430C71
:100A300018BF7FEA6C5C1BD001B050EA410C0CBFC0
:100A400052EA430C91EA030F02BF90EA020F002022
:100A5000704710F1000F91EA030F58BF994208BF89
:100A600090422CBFD8176FEAE37040F00100704746
:100A70004FEA410C7FEA6C5C02D150EA013C07D19D
:100A80004FEA430C7FEA6C5CD6D152EA033CD3D0E8
:100A90005DF8040B704700BF8446104662468C46E2
:100AA0001946634600E000BF01B5FFF7B7FF002815
:100AB00048BF10F1000F01BD4DF808EDFFF7F4FF3E
:100AC0000CBF012000205DF808FB00BF4DF808EDC9
:100AD000FFF7EAFF34BF012000205DF808FB00BFEC
:100AE0004DF808EDFFF7E0FF94BF012000205DF80E
:100AF00008FB00BF4DF808EDFFF7CEFF94BF0120C3
:100B000000205DF808FB00BF4DF808EDFFF7C4FFBB
:100B100034BF012000205DF808FB00BF4FEA410C04
:100B20007FEA6C5C02D150EA013C0AD14FEA430CE7
:100B30007FEA6C5C02D152EA033C02D14FF0000024
:100B400070474FF0010070474FEA410212F5001262
:100B500015D211D56FF47873B3EB625212D94FEA04
:100B6000C12343F0004343EA505311F0004F23FAEE
:100B700002F018BF404270474FF00000704750EA43
:100B8000013005D111F0004008BF6FF00040704700
:100B90004FF00000704700BF4A0011D212F500125A
:100BA00011D20DD56FF47873B3EB62520ED44FEAC5
:100BB000C12343F0004343EA505323FA02F0704745
:100BC0004FF00000704750EA013002D14FF0FF3083
:100BD00070474FF0000070474FEA4102B2F1E04326
:100BE00024BFB3F5001CDCF1FE5C0DD901F0004C14
:100BF0004FEAC0024CEA5070B2F1004F40EB830064
:100C000008BF20F00100704711F0804F21D113F18F
:100C10003872BCBF01F00040704741F480114FEAC8
:100C20005252C2F11802C2F1200C10FA0CF320FA51
:100C300002F018BF40F001004FEAC1234FEAD3236E
:100C400003FA0CFC40EA0C0023FA02F34FEA4303D8
:100C5000CCE77FEA625307D150EA01331EBF4FF061
:100C6000FE4040F44000704701F0004040F0FE407C
:100C700040F40000704700BF80F0004002E000BF79
:100C800081F0004142001FBF5FEA410392EA030F77
:100C90007FEA226C7FEA236C6AD04FEA1262D2EBC1
:100CA0001363C1BFD218414048404140B8BF5B42C6
:100CB000192B88BF704710F0004F40F4000020F05F
:100CC0007F4018BF404211F0004F41F4000121F075
:100CD0007F4118BF494292EA030F3FD0A2F10102BF
:100CE00041FA03FC10EB0C00C3F1200301FA03F1FD
:100CF00000F0004302D5494260EB4000B0F5000F20
:100D000013D3B0F1807F06D340084FEA310102F1DE
:100D10000102FE2A51D2B1F1004F40EBC25008BF90
:100D200020F0010040EA03007047490040EB00005A
:100D3000013A28BFB0F5000FEDD2B0FA80FCACF15B
:100D4000080CB2EB0C0200FA0CF0AABF00EBC25088
:100D500052421843BCBFD0401843704792F0000F76
:100D600081F4000106BF80F400000132013BB5E7C9
:100D70004FEA41037FEA226C18BF7FEA236C21D03F
:100D800092EA030F04D092F0000F08BF08467047A4
:100D900090EA010F1CBF0020704712F07F4F04D172
:100DA000400028BF40F00040704712F100723CBF85
:100DB00000F50000704700F0004343F0FE4040F4AF
:100DC000000070477FEA226216BF08467FEA23636D
:100DD0000146420206BF5FEA412390EA010F40F458
:100DE000800070474FF0000304E000BF10F00043A4
:100DF00048BF40425FEA000C08BF704743F096438B
:100E000001464FF000001CE050EA010208BF7047A5
:100E10004FF000030AE000BF50EA010208BF70472C
:100E200011F0004302D5404261EB41015FEA010C41
:100E300002BF84460146002043F0B64308BFA3F139
:100E40008053A3F50003BCFA8CF2083AA3EBC2531B
:100E500010DB01FA02FC634400FA02FCC2F120023A
:100E6000BCF1004F20FA02F243EB020008BF20F071
:100E70000100704702F1200201FA02FCC2F12002D7
:100E800050EA4C0021FA02F243EB020008BF20EACC
:100E9000DC70704753B94AB9002908BF00281CBF4D
:100EA0004FF0FF314FF0FF3000F08CB9ADF1080C7E
:100EB0006DE904CE00F024F8DDF804E0DDE902235A
:100EC00004B07047D0B50C4B002206460F46FFF722
:100ED0008BFBFFF761FE0446FFF70CFB074B00227C
:100EE000FFF782FB02460B4630463946FFF7C4F94E
:100EF000FFF752FE2146D0BD0000F03D0000F0415A
:100F00002DE9F047089D04468C46002B40F0838075
:100F10008A42174647D9B2FA82F242B1C2F12000A2
:100F200024FA00F09140974040EA010C94404FEAC7
:100F30001748230CBCFBF8F61FFA87FE08FB16C106
:100F400043EA014306FB0EF1994209D9FB1806F169
:100F5000FF3080F01981994240F21681023E3B44F5
:100F60005B1AA4B2B3FBF8F008FB103344EA034465
:100F700000FB0EFEA64509D93C1900F1FF3380F0B5
:100F80000581A64540F2028102383C4440EA064011
:100F9000A4EB0E0400261DB1D4400023C5E9004394
:100FA0003146BDE8F08702B9FFDEB2FA82F2002ACC
:100FB00050D1CB1B4FEA174E1FFA87F80126B3FB1F
:100FC000FEFC210C0EFB1C3341EA034108FB0CF331
:100FD0008B4207D979180CF1FF3002D28B4200F214
:100FE000E9808446C91AA3B2B1FBFEF00EFB1011D2
:100FF00043EA014408FB00F8A04507D93C1900F179
:10100000FF3302D2A04500F2D9801846A4EB0804B1
:1010100040EA0C40BFE78B4209D9002D00F0B180B7
:101020000026C5E9000130463146BDE8F087B3FA35
:1010300083F6002E4AD18B4202D3824200F2B8805E
:10104000841A61EB030101208C46002DA8D0C5E96C
:10105000004CA5E7C2F1200320FA03F6974001FAFD
:1010600002F04FEA174ED9403043030CB1FBFEF6B5
:101070001FFA87F80EFB161143EA014306FB08F13D
:10108000994204FA02F409D9FB1806F1FF3C80F0FA
:101090008D80994240F28A80023E3B445B1A81B2C5
:1010A000B3FBFEF00EFB103341EA034100FB08F3F3
:1010B0008B4207D9791800F1FF3C73D28B4271D96A
:1010C00002383944CB1A40EA064678E7C6F1200CCC
:1010D00003FA06F422FA0CF31C4320FA0CF701FA87
:1010E00006F34FEA144E21FA0CF11F433B0CB1FBFF
:1010F000FEF91FFA84F80EFB191143EA014109FBBE
:1011000008FA8A4502FA06F200FA06F308D96118CD
:1011100009F1FF3048D28A4546D9A9F10209214494
:10112000A1EB0A01BFB2B1FBFEF00EFB101147EAC2
:10113000014700FB08F8B84507D9E71900F1FF316E
:101140002ED2B8452CD90238274440EA0940A7EBF3
:101150000807A0FB02894F45C64649461AD317D057
:101160005DB1B3EB0E0267EB010707FA0CFCF2402E
:101170004CEA0202F740C5E9002700263146BDE8E7
:10118000F0872E4628460BE70646E9E61846FDE6B8
:101190004345E5D2B8EB020E69EB04010138DFE705
:1011A0000846D2E760468DE78146B9E7664675E7AF
:1011B00030464AE7ACF1020C394413E702383C44AC
:1011C00024E700BF704700BF80B483B000AF034680
:1011D000FB71FB795A2B04D8FB79402B01D90123F1
:1011E00008E0FB797A2B04D8FB79602B01D9012325
:1011F00000E0002318460C37BD465DF8047B7047BD
:1012000090B589B002AF78607B681B781846FFF70D
:10121000DBFF0346002B00F0F0817B6805331B7871
:101220001846FFF7D1FF0346002B00F0E681CE4BB6
:101230005B781946CC4B9B781C46CB4BDB781A4627
:10124000C94B1B7907F10C000193009223460A4613
:10125000C6490DF02FFC07F10C0318460DF0B0FA4B
:101260007861C14B9B791946BF4BDB791C46BE4B5D
:101270001B7A1A46BC4B5B7A07F108000193009277
:1012800023460A46B9490DF015FC07F10803184634
:101290000DF096FA38617B681B78413B162B00F203
:1012A000A48101A252F823F067140008EB1500088E
:1012B00001150008211400084B130008EB15000865
:1012C000B1140008EB15000891150008EB15000893
:1012D000EB150008D1150008EB150008EB15000808
:1012E000EB1500082915000891130008EB150008FC
:1012F000DB130008EB150008D9150008EB150008F2
:10130000051300089A4BDC687869FFF703F93B691D
:1013100007EE903AF8EEE77ADFED966A87EEA67A66
:101320000222DFED952A9FED942AF0EE470A41EC68
:10133000110B6421B3EE040A20460CF08AFA8C4BA0
:10134000DB6818460CF0BCFA58E1894BDC68786918
:10135000FFF7E0F83B6907EE903AF8EEE77ADFED49
:10136000856A87EEA67A0122F2EE042A9FED832A8F
:10137000F0EE470A41EC110B6421B3EE040A20465B
:101380000CF067FA7A4BDB6818460CF099FA35E1F5
:10139000774BDC687869FFF7BDF83B6907EE903A58
:1013A000F8EEE77AF1EE677ADFED726A87EEA67AF9
:1013B0000122F2EE042A9FED712AF0EE470A41EC79
:1013C000110B6421B3EE040A20460CF042FA684B7C
:1013D000DB6818460CF074FA10E1654BDC6878693C
:1013E000FFF798F83B6907EE903AF8EEE77ADFED01
:1013F000616A87EEA67A0222DFED5F2A9FED5E2A00
:10140000F0EE470A41EC110B6421BBEE040A2046C2
:101410000CF01FFA564BDB6818460CF051FAEDE061
:10142000534BDC687869FFF775F83B6907EE903A33
:10143000F8EEE77ADFED4F6A87EEA67A0122F2EE48
:10144000042A9FED4E2AF0EE470A41EC110B64216D
:10145000BBEE040A20460CF0FCF9454BDB6818464D
:101460000CF02EFACAE0424BDC687869FFF752F8BC
:101470003B6907EE903AF8EEE77AF1EE677ADFED36
:101480003D6A87EEA67A0122F2EE042A9FED3B2AFE
:10149000F0EE470A41EC110B6421BBEE040A204632
:1014A0000CF0D7F9324BDB6818460CF009FAA5E0CE
:1014B0002F4B9B687A6907EE902AF8EEE77ADFED0A
:1014C0002D6A87EEA67AB0EE470A18460BF05AFE50
:1014D000274B9B683A6907EE902AF8EEE77ADFED32
:1014E000256A87EEA67AB0EE470A18460BF059FE39
:1014F0004FF6FF730A222249224806F054FD7DE090
:101500001B4BDB687A6907EE902AF8EEE77AB0EEBB
:10151000670A18460CF070F94FF6FF730A22184953
:10152000184806F040FD69E07B6907EE903AB8EE96
:10153000E77ADFED106AC7EE267A134BC3ED007A27
:101540003B6907EE903AB8EEE77ADFED0A6AC7EE3C
:10155000267A0D4BC3ED027A4FF6FF730A22084933
:10156000084806F020FD49E08C4A0020140F0108CD
:10157000CC4C00200000C842000000000000B44233
:10158000200F0108384B0020AC4C002000401C46C6
:101590007B6907EE903AB8EEE77A5FED046AC7EE32
:1015A000267A184BC3ED017A3B6907EE903AB8EE04
:1015B000E77ADFED156AC7EE267A124BC3ED037AA0
:1015C0004FF6FF730A221149114806F0ECFC15E0B2
:1015D000104B00221A6011E03B6907EE903AF8EEDA
:1015E000E77A0C4BC3ED0A7A08E04FF6FF730A2244
:1015F0000949074806F0D7FC00E000BF00BF1C37D0
:10160000BD4690BDAC4C002000401C46200F010898
:10161000384B0020204C00202C0F010880B500AF73
:1016200002F036FD00F066F800F0D6FB00F0FEFA9E
:1016300000F0A8FB00F052FA00F08CF900F0A2FADA
:1016400000F05AF900F0B4F800F004F90A22184941
:10165000184806F03AFD07F065FC174A00211748C4
:1016600007F0AAFC0346164A1360164A00211648E2
:1016700007F0A2FC0346154A1360154A00211548DD
:1016800007F09AFC0346144A1360144A00211448D8
:1016900007F092FC0346134A1360134A00211348D3
:1016A00007F08AFC0346124A136007F05FFCFEE76E
:1016B0008C4A0020384B0020F40F01088D200008D0
:1016C000884A002018100108A1200008C84C0020FA
:1016D0003C100108B1200008344B002060100108C4
:1016E000D1250008A04A00208410010831380008E4
:1016F000284D002080B594B000AF07F120033022C0
:10170000002118460DF0AAF807F10C0300221A6018
:101710005A609A60DA601A610023BB60224B1B6C2E
:10172000214A43F0805313641F4B1B6C03F080531A
:10173000BB60BB6800237B601C4B1B681B4A43F4E7
:1017400080431360194B1B6803F480437B607B6804
:1017500002233B620123FB6210233B630023BB6334
:1017600007F12003184604F03BFB0346002B01D091
:1017700002F0E2F80F23FB6000233B6100237B6152
:101780000023BB610023FB6107F10C030021184615
:1017900004F09EFD0346002B01D002F0CDF800BFFF
:1017A0005037BD4680BD00BF003802400070004089
:1017B00080B584B000AF3B4600221A605A609A6040
:1017C000DA60214B214A1A601F4B00225A601E4BDF
:1017D00000229A601C4B00221A611B4B00221A76D1
:1017E000194B002283F82020174B0022DA62164B97
:1017F000174A9A62144B0022DA60134B0122DA6115
:10180000114B002283F830200F4B01225A610E4801
:1018100002F0A4FC0346002B01D002F08DF80B234C
:101820003B6001237B600023BB603B4619460648B2
:1018300002F0B8FD0346002B01D002F07DF800BF96
:101840001037BD4680BD00BF644C00200020014021
:101850000100000F80B584B000AF3B4600221A6043
:101860005A609A60DA60214B214A1A601F4B0022AD
:101870005A601E4B00229A601C4B00221A611B4BBF
:1018800000221A76194B002283F82020174B0022E1
:10189000DA62164B174A9A62144B0022DA60134B35
:1018A0000122DA61114B002283F830200F4B012214
:1018B0005A610E4802F052FC0346002B01D002F0A0
:1018C0003BF80C233B6001237B600023BB603B465D
:1018D0001946064802F066FD0346002B01D002F0CF
:1018E0002BF800BF1037BD4680BD00BF7C4B0020E9
:1018F000002101400100000F80B500AF124B134AD8
:101900001A60114B124A5A600F4B00229A600E4B1C
:101910000022DA600C4B4FF480421A610A4B00221D
:101920005A61094B00229A61074B0022DA61064B8B
:1019300000221A62044803F095FA0346002B01D0F6
:1019400001F0FAFF00BF80BDC44B002000540040EE
:10195000A086010080B59AB000AF07F158030022BD
:101960001A605A609A60DA6007F1500300221A6028
:101970005A6007F1340300221A605A609A60DA60F4
:101980001A615A619A6107F1240300221A605A60B1
:101990009A60DA603B1D2022002118460CF05EFFA1
:1019A0004C4B4D4A1A604B4B9F225A60494B0022C8
:1019B0009A60484B40F2E732DA60464B00221A61E7
:1019C000444B00225A61434B00229A61414804F083
:1019D00081FE0346002B01D001F0AEFF4FF480538F
:1019E000BB6507F1580319463A4805F049FC034620
:1019F000002B01D001F0A0FF364804F02BFF034676
:101A0000002B01D001F098FF324805F045F803465D
:101A1000002B01D001F090FF00233B6500237B6584
:101A200007F1500319462B4806F08EF90346002BA8
:101A300001D001F081FF60237B630023BB6300239F
:101A4000FB6300233B6400237B640023BB6400230F
:101A5000FB6407F13403002219461E4805F04EFBD3
:101A60000346002B01D001F067FF00237B620123B6
:101A7000BB620023FB6200233B6307F124030C22BB
:101A80001946144805F09DFA0346002B01D001F0D9
:101A900053FF00237B600023BB600023FB60002317
:101AA0003B6100237B614FF40053BB6100233B6229
:101AB0003B1D1946074806F0C3F90346002B01D029
:101AC00001F03AFF034802F02DF900BF6837BD4628
:101AD00080BD00BFE04C00200000014080B58CB00C
:101AE00000AF07F10C032422002118460CF0B6FECB
:101AF0003B1D00221A605A60214B4FF080421A6051
:101B00001F4B00225A601E4B00229A601C4B4FF65E
:101B1000FF72DA601A4B00221A61194B00229A6197
:101B20000323FB6000233B6101237B610023BB6136
:101B30000A23FB6100233B6201237B620023BB621B
:101B40000A23FB6207F10C0319460D4804F0FDFF60
:101B50000346002B01D001F0EFFE00237B60002341
:101B6000BB603B1D1946064806F0EEF80346002B05
:101B700001D001F0E1FE00BF3037BD4680BD00BF9F
:101B80002C4D002080B58CB000AF07F10C0324224F
:101B9000002118460CF062FE3B1D00221A605A60BC
:101BA000204B214A1A601F4B00225A601D4B002215
:101BB0009A601C4B4FF6FF72DA601A4B00221A61D2
:101BC000184B00229A610323FB6000233B61012331
:101BD0007B610023BB610023FB6100233B62012387
:101BE0007B620023BB620023FB6207F10C031946F2
:101BF0000C4804F0AAFF0346002B01D001F09CFE24
:101C000000237B600023BB603B1D1946054806F09E
:101C10009BF80346002B01D001F08EFE00BF303749
:101C2000BD4680BDEC4A00200008004080B596B05B
:101C300000AF07F1480300221A605A609A60DA6028
:101C400007F1400300221A605A6007F124030022C2
:101C50001A605A609A60DA601A615A619A613B1D93
:101C60002022002118460CF0F9FD444B444A1A602A
:101C7000424B0F225A60414B00229A603F4B42F286
:101C80000F72DA603D4B00221A613C4B00225A6110
:101C90003A4B00229A61394804F01CFD0346002BA0
:101CA00001D001F049FE4FF48053BB6407F14803B3
:101CB0001946324805F0E4FA0346002B01D001F042
:101CC0003BFE2E4804F0C6FD0346002B01D001F078
:101CD00033FE00233B6400237B6407F14003194675
:101CE000264806F031F80346002B01D001F024FE0F
:101CF00060237B620023BB620023FB6200233B6303
:101D000000237B630023BB630023FB6307F12403F1
:101D100000221946194805F0F1F90346002B01D0BD
:101D200001F00AFE07F1240308221946134805F0C2
:101D3000E5F90346002B01D001F0FEFD00237B6096
:101D40000023BB600023FB6000233B6100237B6119
:101D50004FF40053BB6100233B623B1D194607480B
:101D600006F06EF80346002B01D001F0E5FD0348B4
:101D700001F0D8FF00BF5837BD4680BDA44A0020FF
:101D80000004014080B500AF114B124A1A60104B9D
:101D90004FF4E1325A600E4B00229A600C4B002245
:101DA000DA600B4B00221A61094B0C225A61084B76
:101DB00000229A61064B0022DA61054806F0A6F877
:101DC0000346002B01D001F0B7FD00BF80BD00BF6E
:101DD000384B00200048004080B58AB000AF07F1C2
:101DE000140300221A605A609A60DA601A610023B4
:101DF0003B614F4B1B6B4E4A43F0100313634C4B3C
:101E00001B6B03F010033B613B690023FB60484BF5
:101E10001B6B474A43F004031363454B1B6B03F0F2
:101E20000403FB60FB680023BB60414B1B6B404A13
:101E300043F0010313633E4B1B6B03F00103BB60D4
:101E4000BB6800237B603A4B1B6B394A43F00803A5
:101E50001363374B1B6B03F008037B607B68002325
:101E60003B60334B1B6B324A43F002031363304B2E
:101E70001B6B03F002033B603B6800224FF4AF5141
:101E80002C4802F0D5FF00224FF486712A4802F058
:101E9000CFFF00222021294802F0CAFF4FF4AF53A0
:101EA0007B610123BB610023FB6100233B6207F1DF
:101EB000140319461F4802F007FE4FF486737B6136
:101EC0000123BB610023FB6100233B6207F1140384
:101ED0001946194802F0F8FD20237B610123BB61FC
:101EE0000023FB6100233B6207F1140319461348EA
:101EF00002F0EAFD4FF480737B610023BB61012394
:101F0000FB6107F1140319460D4802F0DDFD0123C2
:101F10007B610023BB610123FB6107F114031946B8
:101F2000044802F0D1FD00BF2837BD4680BD00BF88
:101F30000038024000100240000002400008024049
:101F4000000C02400000000080B582B000AF786055
:101F50003F4B1B88002B1BD10C21786805F058FAE9
:101F600003469AB23B4B1A80394B01221A807B6898
:101F70001B681A6A7B681B6822F420421A627B681D
:101F80001B681A6A7B681B6842F400521A6257E0A9
:101F90002F4B1B88012B53D10C21786805F038FAA0
:101FA00003469AB22C4B1A802B4B1A88294B1B885C
:101FB0009A4208D9284B1A88264B1B88D31A9AB202
:101FC000264B1A800DE0234B1A88234B1B889A421C
:101FD00007D9214B1A881F4B1B88D31A9AB21F4B63
:101FE0001A801E4B1B881846FEF794FA16A3D3E9F5
:101FF0000023FEF7F9FA02460B46104619464FF049
:1020000000024FF08043FEF719FC02460B461046D3
:102010001946FEF7C1FD03469AB2114B1A800C4BCC
:1020200000221A807B681B681A6A7B681B6822F48E
:1020300020421A627B681A687B681B68126A1A62FF
:1020400000BF0837BD4680BD9CC420B07268A13F68
:10205000C44C0020584C0020DC4C0020744D002063
:102060009400002080B582B000AF78600548FFF78B
:10207000C7F80A220349044806F027F800BF0837CA
:10208000BD4680BD8C4A0020384B002080B582B010
:1020900000AF7860014807F021F8FBE7808D5B0016
:1020A00080B582B000AF7860642007F017F8FBE7D6
:1020B00080B59EB000AF78600AF0A6FE0AF074FD0D
:1020C000002387F8773003233B670323FB6697F8E9
:1020D000773087F86B304FF48071CE4802F090FE75
:1020E000034687F8773097F86B30002B12D197F8BA
:1020F0007730012B0ED1FB6E013B3A6F9A4203DA27
:102100003B6F01333B6701E000233B670AF04CFD66
:102110000AF0C8FC97F8773087F86B30BE4BDB6865
:1021200018460BF0ACFCF0EE407A9FEDBC7A67EEFF
:10213000877AC7ED197AB84BDB6818460BF0CDFCEF
:10214000F0EE407A9FEDB57A67EE877AC7ED187AA0
:10215000B14BDB6818460BF0EEFCF0EE407A9FEDD9
:10216000AF7A67EE877AC7ED177AAB4BDB68184614
:102170000BF00FFDF0EE407A9FEDA87A67EE877ABC
:10218000C7ED167A3B6F022B00F058813B6F022B94
:1021900000F304823B6F002B04D03B6F012B00F057
:1021A0009D80FBE107F108039D4918460CF082FC75
:1021B00007F10802142300210A200AF0E7FD786ED7
:1021C000FEF7BAF902460B4643EC102B0DF064F80B
:1021D00053EC102B10461946FEF7B6FC024607F1E9
:1021E0000803904918460CF065FC07F10802142317
:1021F0000A210A200AF0CAFD386EFEF79DF9024650
:102200000B4643EC102B0DF047F853EC102B104607
:102210001946FEF799FC024607F108038249184661
:102220000CF048FC07F10802142314210A200AF0DC
:10223000ADFD794BDB68D3E90E2310461946FEF756
:102240009DF902460B4610461946FEF77DFC0246F4
:1022500007F10803754918460CF02CFC07F1080239
:1022600014231E210A200AF091FD6B4BDB68D3E991
:10227000122310461946FEF781F902460B46104616
:102280001946FEF761FC024607F108036849184643
:102290000CF010FC07F10802142328210A200AF090
:1022A00075FD5D4BDB68D3E9142310461946FEF734
:1022B00065F902460B4610461946FEF745FC0246F4
:1022C00007F108035B4918460CF0F4FB07F108021C
:1022D000142332210A200AF059FD5FE107F10803B7
:1022E000554918460CF0E6FB07F1080214230021BB
:1022F0000A200AF04BFDF86DFEF71EF902460B4668
:1023000043EC102B0CF0C8FF53EC102B1046194671
:10231000FEF71AFC024607F10803424918460CF082
:10232000C9FB07F1080214230A210A200AF02EFD36
:10233000B86DFEF701F902460B4643EC102B0CF08A
:10234000ABFF53EC102B10461946FEF7FDFB02467F
:1023500007F10803344918460CF0ACFB07F10802FA
:10236000142314210A200AF011FD2B4BDB68D3E95A
:10237000102310461946FEF701F902460B46104697
:102380001946FEF7E1FB024607F108032749184604
:102390000CF090FB07F1080214231E210A200AF01A
:1023A000F5FC1D4BDB68D3E9162310461946FEF7F2
:1023B000E5F802460B4610461946FEF7C5FB0246F5
:1023C00007F108031A4918460CF074FB07F10802DC
:1023D000142328210A200AF0D9FC0F4BDB68D3E92B
:1023E000182310461946FEF7C9F802460B46104658
:1023F0001946FEF7A9FB024607F108030D491846E6
:102400000CF058FB07F10802142332210A200AF0CD
:10241000BDFCC3E0000C0240CC4C00200000C842D0
:10242000380F0108440F0108500F01085C0F010824
:10243000680F0108740F0108800F010807F10803F5
:102440005A4918460CF036FB07F108021423002104
:102450000A200AF09BFC564B1B685B691846FEF786
:102460006BF802460B4643EC102B0CF015FF53ECB7
:10247000102B10461946FEF767FB024607F10803CA
:102480004C4918460CF016FB07F1080214230A21E8
:102490000A200AF07BFC464B5B685B691846FEF736
:1024A0004BF802460B4643EC102B0CF0F5FE53ECB8
:1024B000102B10461946FEF747FB024607F10803AA
:1024C0003D4918460CF0F6FA07F1080214231421CE
:1024D0000A200AF05BFC364BDB68DB691846FEF726
:1024E0002BF802460B4643EC102B0CF0D5FE53ECB8
:1024F000102B10461946FEF727FB024607F108038A
:102500002E4918460CF0D6FA07F1080214231E21B2
:102510000A200AF03BFC2A4B1B685B68DB68184604
:10252000FEF70AF802460B4643EC102B0CF0B4FE03
:1025300053EC102B10461946FEF706FB024607F136
:102540000803204918460CF0B5FA07F108021423D5
:1025500028210A200AF01AFC194B5B685B68DB68CB
:102560001846FDF7E9FF02460B4643EC102B0CF032
:1025700093FE53EC102B10461946FEF7E5FA02467F
:1025800007F10803104918460CF094FA07F1080205
:10259000142332210A200AF0F9FB00BF0AF082FA64
:1025A0004FF4FA7006F09AFD91E500BF8C0F010818
:1025B000CC4C00209C0F0108A80F0108B40F0108A3
:1025C0007C4D0020C00F0108CC0F01080000000066
:1025D000B0B596B002AF786000217D480CF067F886
:1025E00003467C4A13607C4B3B620423BB847A4BDA
:1025F000BB610823BB83794B3B612023BB82784BB3
:10260000BB604FF48053BB816A4607F1200393E817
:10261000030082E8030007F118030CCB0021714886
:102620000AF029F90346704A13606A4607F110035D
:1026300093E8030082E8030007F108030CCB0821AC
:1026400068480AF018F90346674A5360674809F07A
:102650000DFB0346664A1360664809F007FB034614
:10266000634A5360644B654A5A60634B644A1A601C
:10267000614B624ADA60604B624A9A605E4B624A22
:102680005A615D4B4FF082421A6160495A480AF024
:1026900047FC03465E4A13605E495F480AF040FC0F
:1026A00003465B4A53605D495D480AF039FC0346C6
:1026B000574A9360564B1B684B4A11684C4A126844
:1026C00018460AF045FF0346564A1360504B5B68B4
:1026D000454A5168464A526818460AF039FF03468F
:1026E000504A5360504809F07BFC494B9B68394A7B
:1026F00011684D4A18460AF004FD0346494A9360A2
:10270000484B1868474B5968464B9A68474B0AF044
:10271000CDFF0346434AD360424BDB684449184629
:102720000BF089F843494FF000024FF00003C1E974
:10273000082340494FF000024FF00003C1E906238F
:102740003C4B3D4A9A623B494FF000024FF0000378
:10275000C1E90223374B4FF0FF321A604FF00002FD
:102760004FF00003C7E90E234FF000024FF00003C3
:10277000C7E90C234FF000024FF00003C7E9122312
:102780004FF000024FF00003C7E910234FF00002A2
:102790004FF00003C7E90A23224BDB689B681B68E4
:1027A0009FED090B18460BF0B1FF01210C4802F018
:1027B00027FB0346002B41D01A4BDB6818460BF071
:1027C00017FA01F01DB800BF000000000000000073
:1027D000E04C0020784D002000000240000802403C
:1027E00000100240A44A0020184C00202C4D00206C
:1027F0005C4C0020EC4A0020AC4C00200AD7233C63
:1028000000004041000030416F12033AB04C0020FC
:102810007C4D0020B84C0020B44C0020C04C00205F
:10282000BC4C0020CC4C0020C44B0020384B002076
:10283000284C0020204C002000C07944C24BDB68AB
:102840001B689B680122C821184609F042FABE4B5A
:10285000DB685B689B684FF0FF32C821184609F0BF
:1028600038FAB94BDB681B689B685B685B68184685
:10287000FDF750FE02460B46C7E90E23B24BDB685C
:102880005B689B685B685B681846FDF743FE024621
:102890000B46C7E90C23D7E90E23D7E91201FDF750
:1028A000EDFC02460B46C7E91223D7E90C23D7E912
:1028B0001001FDF7E3FC02460B46C7E91023D7E9F8
:1028C0001023D7E91201FDF7D9FC02460B46C7E9F0
:1028D0000A239E4B1B68132B00F2928701A252F829
:1028E00023F000BF352900086F2A0008552B000887
:1028F000F92B0008B12C0008512D0008312E0008DA
:10290000D12E0008892F000825300008F930000872
:102910009531000847320008E3320008C13300084F
:102920006134000813350008C9350008B5360008C1
:1029300067370008844BDB689B681B689FED7C0B46
:1029400018460BF0E3FE804BDB681B681C6840F602
:102950008C71002009F08CF853EC102B10461946AE
:10296000FEF7F2F8034600221946204609F0AEFFB2
:10297000754BDB685B681C684FF47A61002009F0D6
:10298000F7F853EC102B10461946FEF7DDF8034616
:1029900000221946204609F099FF6C4BD3ED0A7AC4
:1029A0009FED6B7AF4EEC77AF1EE10FA10D5674B13
:1029B00001221A604FF000024FF00003C7E9122312
:1029C0004FF000024FF00003C7E9102300F018BFDA
:1029D0005E4B1B6B1846FDF79DFD04460D465B4B99
:1029E000DB6A1846FDF796FD02460B46204629464F
:1029F000FDF724FF02460B46104619464EA3D3E9C5
:102A00000023FEF781F80346002B1FD14F4BDB6AF2
:102A10001846FDF77FFD04460D464C4B1B6B1846D0
:102A2000FDF778FD02460B4620462946FDF706FFD6
:102A300002460B46104619463FA3D3E90023FEF792
:102A400063F80346002B01D100F0DABE3F4B12229F
:102A50001A604FF000024FF00003C7E912234FF055
:102A600000024FF00003C7E9102300F0C9BE364B47
:102A7000DB689B681B689FED320B18460BF046FE27
:102A8000314BDB681B681C6800216FF01D0008F0EB
:102A9000EFFF53EC102B10461946FEF755F803468E
:102AA00001221946204609F011FF274BDB685B68BD
:102AB0001C6800216FF01D0009F05AF853EC102B30
:102AC00010461946FEF740F80346012219462046F3
:102AD00009F0FCFE4FF000024FF00003D7E90E01B1
:102AE000FDF7EAFF0346002B01D100F089BE4FF04D
:102AF00000024FF00003D7E90C01FDF7DDFF0346AC
:102B0000002B01D100F07CBE104B02221A604FF066
:102B100000024FF00003C7E912234FF000024FF00C
:102B20000003C7E9102300F06BBE00BFAFF30080C5
:102B30000000000000000000AE47E17A14AEF33F51
:102B40000000000000003EC0CC4C0020204C0020C3
:102B500000004842B24BDB689B681B689FEDAA0BE4
:102B600018460BF0D3FDAE4BDB681B681C6841F2C6
:102B700056316FF01D0008F07BFF53EC102B104610
:102B80001946FDF7E1FF034600221946204609F0E9
:102B90009DFEA34BDB685B681C6841F288316FF0D7
:102BA0001D0008F0E5FF53EC102B10461946FDF709
:102BB000CBFF034600221946204609F087FE4FF05E
:102BC0000002984BD7E90A01FDF79EFF0346002B50
:102BD00001D100F015BE944B03221A604FF00002A1
:102BE0004FF00003C7E912234FF000024FF000033B
:102BF000C7E9102300F004BE894BDB689B681B68A3
:102C00009FED830B18460BF081FD854BDB681B683D
:102C10001C680021002008F02BFF53EC102B1046FD
:102C20001946FDF791FF034601221946204609F097
:102C30004DFE7B4BDB685B681C680021002008F0C0
:102C400097FF53EC102B10461946FDF77DFF034606
:102C500001221946204609F039FE4FF000024FF0DC
:102C60000003D7E90E01FDF727FF0346002B01D132
:102C700000F0C6BD4FF000024FF00003D7E90C0191
:102C8000FDF71AFF0346002B01D100F0B9BD664BDA
:102C900004221A604FF000024FF00003C7E912232C
:102CA0004FF000024FF00003C7E9102300F0A8BD69
:102CB0005B4BDB689B681B689FED550B18460BF060
:102CC00025FD574BDB681B681C6841F2563100201C
:102CD00008F0CEFE53EC102B10461946FDF734FFDA
:102CE000034600221946204609F0F0FD4C4BDB68F4
:102CF0005B681C6841F28831002008F039FF53EC12
:102D0000102B10461946FDF71FFF034600221946F7
:102D1000204609F0DBFD4FF00002444BD7E90A01E1
:102D2000FDF7F2FE0346002B01D100F069BD3E4BDA
:102D300005221A604FF000024FF00003C7E912238A
:102D40004FF000024FF00003C7E9102300F058BD18
:102D5000334BDB689B681B689FED2F0B18460BF00D
:102D6000D5FC2F4BDB681B681C680021002008F095
:102D70007FFE53EC102B10461946FDF7E5FE034687
:102D800001221946204609F0A1FD254BDB685B684E
:102D90001C680021002008F0EBFE53EC102B1046BD
:102DA0001946FDF7D1FE034601221946204609F0D7
:102DB0008DFD4FF000024FF00003D7E90E01FDF743
:102DC0007BFE0346002B01D100F01ABD4FF000023C
:102DD0004FF00003D7E90C01FDF76EFE0346002B10
:102DE00001D100F00DBD104B06221A604FF0000219
:102DF0004FF00003C7E912234FF000024FF0000329
:102E0000C7E9102300F0FCBC0000000000003EC039
:102E100000000000000000000000000000003E4034
:102E2000CC4C002000406F40204C0020000044406B
:102E3000AD4BDB689B681B689FEDA70B18460BF03A
:102E400065FCA94BDB681B681C6841F256311E20EB
:102E500008F00EFE53EC102B10461946FDF774FED9
:102E6000034600221946204609F030FD9E4BDB68E0
:102E70005B681C6841F288311E2008F079FE53EC33
:102E8000102B10461946FDF75FFE03460022194637
:102E9000204609F01BFD4FF00002944BD7E90A01D0
:102EA000FDF732FE0346002B01D100F0A9BC904B88
:102EB00007221A604FF000024FF00003C7E9122307
:102EC0004FF000024FF00003C7E9102300F098BC58
:102ED000854BDB689B681B689FED810B18460BF0E8
:102EE00015FC814BDB681B681C680021002008F082
:102EF000BFFD53EC102B10461946FDF725FE034687
:102F000001221946204609F0E1FC774BDB685B683B
:102F10001C680021002008F02BFE53EC102B1046FB
:102F20001946FDF711FE034601221946204609F015
:102F3000CDFC4FF000024FF00003D7E90E01FDF782
:102F4000BBFD0346002B01D100F05ABC4FF000023C
:102F50004FF00003D7E90C01FDF7AEFD0346002B4F
:102F600001D100F04DBC624B08221A604FF0000204
:102F70004FF00003C7E912234FF000024FF00003A7
:102F8000C7E9102300F03CBC574BDB689B681B680B
:102F90009FED530B18460BF0B9FB534BDB681B68D6
:102FA0001C6841F25631002008F062FD53EC102BF2
:102FB00010461946FDF7C8FD034600221946204673
:102FC00009F084FC484BDB685B681C6841F288317F
:102FD000002008F0CDFD53EC102B10461946FDF7EC
:102FE000B3FD034600221946204609F06FFC4FF05E
:102FF0000002404BD7E90A01FDF786FD0346002B8E
:1030000000D1FDE33A4B09221A604FF000024FF065
:103010000003C7E912234FF000024FF00003C7E995
:103020001023EDE3304BDB689B681B689FED2A0B98
:1030300018460BF06BFB2C4BDB681B681C680021EF
:10304000002008F015FD53EC102B10461946FDF733
:103050007BFD034601221946204609F037FC224B2E
:10306000DB685B681C680021002008F081FD53ECE0
:10307000102B10461946FDF767FD0346012219463D
:10308000204609F023FC4FF000024FF00003D7E97F
:103090000E01FDF711FD0346002B00D1B0E34FF008
:1030A00000024FF00003D7E90C01FDF705FD0346D0
:1030B000002B00D1A4E30E4B0A221A604FF000024D
:1030C0004FF00003C7E912234FF000024FF0000356
:1030D000C7E9102394E300BF0000000000003E4059
:1030E0000000000000000000CC4C002000008940DF
:1030F000204C002000A09440AD4BDB689B681B680F
:103100009FEDA50B18460BF001FBA94BDB681B6874
:103110001C6841F256311E2008F0AAFC53EC102B1B
:1031200010461946FDF710FD0346002219462046B9
:1031300009F0CCFB9E4BDB685B681C6841F2883170
:103140001E2008F015FD53EC102B10461946FDF714
:10315000FBFC034600221946204609F0B7FB4FF05E
:103160000002944BD7E90A01FDF7CEFC0346002B81
:1031700000D145E3904B0B221A604FF000024FF054
:103180000003C7E912234FF000024FF00003C7E924
:10319000102335E3864BDB689B681B689FED800B33
:1031A00018460BF0B3FA824BDB681B681C680021E1
:1031B000002008F05DFC53EC102B10461946FDF77B
:1031C000C3FC034601221946204609F07FFB784BD9
:1031D000DB685B681C680021002008F0C9FC53EC28
:1031E000102B10461946FDF7AFFC03460122194685
:1031F000204609F06BFB4FF000024FF00003D7E9C7
:103200000E01FDF759FC0346002B00D1F8E24FF008
:1032100000024FF00003D7E90C01FDF74DFC034617
:10322000002B00D1ECE2644B0C221A604FF000023C
:103230004FF00003C7E912234FF000024FF00003E4
:10324000C7E91023DCE25A4BDB689B681B689FEDE3
:10325000540B18460BF05AFA554BDB681B681C6878
:1032600041F25631002008F003FC53EC102B1046BD
:103270001946FDF769FC034600221946204609F06D
:1032800025FB4B4BDB685B681C6841F288310020F2
:1032900008F06EFC53EC102B10461946FDF754FC59
:1032A000034600221946204609F010FB4FF00002A9
:1032B000424BD7E90A01FDF727FC0346002B00D15A
:1032C0009EE23D4B0D221A604FF000024FF00003CA
:1032D000C7E912234FF000024FF00003C7E91023A3
:1032E0008EE2334BDB689B681B689FED2F0B184603
:1032F0000BF00CFA2E4BDB681B681C6800216FF08A
:103300001D0008F0B5FB53EC102B10461946FDF7D5
:103310001BFC034601221946204609F0D7FA244B2C
:10332000DB685B681C6800216FF01D0008F020FC62
:1033300053EC102B10461946FDF706FC03460122FC
:103340001946204609F0C2FA4FF000024FF0000380
:10335000D7E90E01FDF7B0FB0346002B00D14FE289
:103360004FF000024FF00003D7E90C01FDF7A4FB7A
:103370000346002B00D143E20F4B0E221A604FF0A0
:1033800000024FF00003C7E912234FF000024FF094
:103390000003C7E9102333E20000000000003E40B4
:1033A00000000000000000000000000000003EC01F
:1033B000CC4C002000008940204C002000004440FC
:1033C000B74BDB689B681B689FEDB10B18460BF091
:1033D0009DF9B34BDB681B681C6841F288316FF0C4
:1033E0001D0008F045FB53EC102B10461946FDF765
:1033F000ABFB034600221946204609F067FAA84BAA
:10340000DB685B681C6841F288316FF01D0008F0D2
:10341000AFFB53EC102B10461946FDF795FB034606
:1034200000221946204609F051FA4FF000029D4B48
:10343000D7E90A01FDF768FB0346002B00D1DFE165
:10344000994B0F221A604FF000024FF00003C7E9BA
:1034500012234FF000024FF00003C7E91023CFE121
:103460008F4BDB689B681B689FED8B0B18460BF03E
:103470004DF98B4BDB681B681C680021002008F0AD
:10348000F7FA53EC102B10461946FDF75DFB034687
:1034900001221946204609F019FA814BDB685B6866
:1034A0001C680021002008F063FB53EC102B104631
:1034B0001946FDF749FB034601221946204609F04B
:1034C00005FA4FF000024FF00003D7E90E01FDF7B7
:1034D000F3FA0346002B00D192E14FF000024FF0C7
:1034E0000003D7E90C01FDF7E7FA0346002B00D1F2
:1034F00086E16D4B10221A604FF000024FF000037E
:10350000C7E912234FF000024FF00003C7E9102370
:1035100076E1634BDB689B681B689FED5F0B184689
:103520000BF0F4F85E4BDB681B681C6841F2563107
:10353000002008F09DFA53EC102B10461946FDF7B9
:1035400003FB034600221946204609F0BFF9544BFD
:10355000DB685B681C6841F28831002008F008FBDA
:1035600053EC102B10461946FDF7EEFA03460022E5
:103570001946204609F0AAF94B4BD3ED0A7AB3EE6F
:103580000E7AF4EEC77AF1EE10FA0DD4464BDB6AF0
:1035900040F65202934240F33281434B1B6B40F69C
:1035A0005202934240F32B813F4B11221A604FF09D
:1035B00000024FF00003C7E912234FF000024FF062
:1035C0000003C7E910231AE1354BDB689B681B68D1
:1035D0009FED310B18460BF099F8314BDB681B68F7
:1035E0001C680021002008F043FA53EC102B104611
:1035F0001946FDF7A9FA034601221946204609F0AB
:1036000065F9274BDB685B681C680021002008F027
:10361000AFFA53EC102B10461946FDF795FA034606
:1036200001221946204609F051F94FF000024FF0EF
:103630000003D7E90E01FDF73FFA0346002B00D146
:10364000DEE04FF000024FF00003D7E90C01FDF778
:1036500033FA0346002B00D1D2E0134B4FF0FF3278
:103660001A604FF6FF730A221049114804F09BFCC0
:103670004FF000024FF00003C7E912234FF00002A1
:103680004FF00003C7E91023BAE000BFAFF300809A
:103690000000000000003EC000000000000000002C
:1036A000CC4C002000406F40204C0020200F01082F
:1036B000384B0020584BDB689B681B689FED540B10
:1036C00018460BF023F8544BDB681B681C6800217C
:1036D000002008F0CDF953EC102B10461946FDF7E9
:1036E00033FA034601221946204609F0EFF84A4B07
:1036F000DB685B681C680021002008F039FA53EC95
:10370000102B10461946FDF71FFA034601221946F1
:10371000204609F0DBF84FF000024FF00003D7E934
:103720000E01FDF7C9F90346002B00D168E04FF008
:1037300000024FF00003D7E90C01FDF7BDF9034685
:10374000002B00D15CE0354B13221A604FF00002D1
:103750004FF00003C7E912234FF000024FF00003BF
:10376000C7E910234CE02C4BDB689B681B689FED7E
:10377000280B18460AF0CAFF274BDB681B681C6839
:103780002749002008F074F953EC102B1046194615
:10379000FDF7DAF9034600221946204609F096F8AB
:1037A0001D4BDB685B681C681E49002008F0E0F9CF
:1037B00053EC102B10461946FDF7C6F903460022BC
:1037C0001946204609F082F84FF00002164BD7E95F
:1037D0000A01FDF77BF90346002B00D110E00F4BE7
:1037E00001221A604FF000024FF00003C7E91223D4
:1037F0004FF000024FF00003C7E9102300E000BFC4
:10380000642005F06BFCFEF7D0BF00BFAFF3008073
:103810000000000000000000CC4C0020204C0020E4
:10382000B0F0FFFF60F0FFFF000059C00000000093
:10383000B0B58AB000AF7860334800F0D3FC3348AD
:1038400000F0D0FC304800F09FFD0346FB842F4879
:1038500000F09AFD0346BB84FB8C1846FCF75AFE29
:1038600025A3D3E90023FCF7BFFE02460B4614460E
:103870001D46274BDB6A1846FCF74CFE20A3D3E914
:103880000023FCF7B1FE02460B4620462946FCF712
:10389000F5FC02460B4610461946FDF755F903465E
:1038A0001B4AD362BB8C1846FCF734FE12A3D3E943
:1038B0000023FCF799FE02460B4614461D46144BA6
:1038C0001B6B1846FCF726FE0DA3D3E90023FCF77B
:1038D0008BFE02460B4620462946FCF7CFFC0246EB
:1038E0000B4610461946FDF72FF90346084A1363A5
:1038F000322005F0F3FB9FE79A9999999999E93F4E
:103900009A9999999999C93F644C00207C4B002061
:10391000204C002080B582B000AF78607B681B68C7
:10392000044A934201D100F0D5FB00BF0837BD46E1
:1039300080BD00BF0020004080B400AF72B600BF61
:10394000FEE7000080B582B000AF00237B60124B21
:103950005B6C114A43F4804353640F4B5B6C03F47C
:1039600080437B607B6800233B600B4B1B6C0A4AE7
:1039700043F080531364084B1B6C03F080533B608F
:103980003B6800220F216FF0010000F0E1FF00BF53
:103990000837BD4680BD00BF0038024080B58CB0FE
:1039A00000AF786007F11C0300221A605A609A6029
:1039B000DA601A617B681B682E4A934228D1002383
:1039C000BB612D4B5B6C2C4A43F4807353642A4BD0
:1039D0005B6C03F48073BB61BB6900237B61264B86
:1039E0001B6B254A43F004031363234B1B6B03F04B
:1039F00004037B617B690623FB6103233B62002395
:103A00007B6207F11C0319461C4801F05DF82CE0AD
:103A10007B681B681A4A934227D100233B61164BEF
:103A20005B6C154A43F400735364134B5B6C03F4F3
:103A300000733B613B690023FB600F4B1B6B0E4A1D
:103A400043F0040313630C4B1B6B03F00403FB6094
:103A5000FB680423FB6103233B6200237B6207F1C5
:103A60001C031946054801F02FF800BF3037BD464A
:103A700080BD00BF00200140003802400008024025
:103A80000021014080B58AB000AF786007F11403CF
:103A900000221A605A609A60DA601A617B681B68BB
:103AA000194A93422CD100233B61184B1B6B174AD8
:103AB00043F002031363154B1B6B03F002033B61DE
:103AC0003B694FF440737B611223BB610023FB61B0
:103AD00003233B6204237B6207F1140319460C485D
:103AE00000F0F2FF0023FB60084B1B6C074A43F415
:103AF00000131364054B1B6C03F40013FB60FB689D
:103B000000BF2837BD4680BD005400400038024049
:103B10000004024080B58AB000AF786007F114035A
:103B200000221A605A609A60DA601A617B681B682A
:103B30002B4A934235D100233B612A4B5B6C294AC7
:103B400043F001035364274B5B6C03F001033B61BB
:103B50003B690023FB60234B1B6B224A43F00103AC
:103B60001363204B1B6B03F00103FB60FB684FF4F6
:103B700000637B610223BB610023FB6100233B6286
:103B800001237B6207F114031946174800F09CFFDC
:103B9000002205211B2000F0DBFE1B2000F0F4FEBC
:103BA0001AE07B681B68114A934215D10023BB6061
:103BB0000C4B5B6C0B4A43F002035364094B5B6C88
:103BC00003F00203BB60BB6800220F212D2000F030
:103BD000BFFE2D2000F0D8FE00BF2837BD4680BDB7
:103BE0000000014000380240000002400004014093
:103BF00080B58CB000AF786007F11C0300221A601A
:103C00005A609A60DA601A617B681B68B3F1804F72
:103C10004BD10023BB613F4B1B6C3E4A43F0010379
:103C200013643C4B1B6C03F00103BB61BB690023B5
:103C30007B61384B1B6B374A43F001031363354BF1
:103C40001B6B03F001037B617B6900233B61314BFC
:103C50001B6B304A43F0020313632E4B1B6B03F0C4
:103C600002033B613B694FF40043FB6102233B626B
:103C700000237B620023BB620123FB6207F11C036C
:103C80001946254800F020FF0823FB6102233B6210
:103C900000237B620023BB620123FB6207F11C034C
:103CA00019461E4800F010FF30E07B681B681C4A74
:103CB00093422BD10023FB60164B1B6C154A43F03B
:103CC00004031364134B1B6C03F00403FB60FB68D9
:103CD0000023BB600F4B1B6B0E4A43F002031363C0
:103CE0000C4B1B6B03F00203BB60BB68C023FB6182
:103CF00002233B6200237B620023BB620223FB6240
:103D000007F11C031946054800F0DEFE00BF3037FE
:103D1000BD4680BD00380240000002400004024061
:103D20000008004080B58AB000AF786007F1140346
:103D300000221A605A609A60DA601A617B681B6818
:103D4000254A93421FD100233B61244B1B6B234A1E
:103D500043F010031363214B1B6B03F010033B6113
:103D60003B694FF400737B610223BB610023FB615D
:103D700000233B6201237B6207F1140319461848B4
:103D800000F0A2FE23E07B681B68164A93421ED116
:103D90000023FB60114B1B6B104A43F004031363B9
:103DA0000E4B1B6B03F00403FB60FB684FF4A07326
:103DB0007B610223BB610023FB6100233B62032381
:103DC0007B6207F114031946074800F07DFE00BF2F
:103DD0002837BD4680BD00BF0000014000380240CA
:103DE00000100240000401400008024080B58AB083
:103DF00000AF786007F1140300221A605A609A60DD
:103E0000DA601A617B681B681D4A934234D1002333
:103E10003B611C4B1B6C1B4A43F480231364194BFE
:103E20001B6C03F480233B613B690023FB60154B53
:103E30001B6B144A43F004031363124B1B6B03F018
:103E40000403FB60FB684FF440637B610223BB61AA
:103E50000023FB6103233B6207237B6207F114030A
:103E60001946094800F030FE00220521272000F005
:103E70006FFD272000F088FD00BF2837BD4680BDBC
:103E800000480040003802400008024080B58CB075
:103E900000AF78600023FB620023BB6200227968D8
:103EA0002D2000F055FD2D2000F06EFD0023FB605D
:103EB0001E4B1B6C1D4A43F4807313641B4B1B6C1D
:103EC00003F48073FB60FB6807F1100207F1140331
:103ED0001146184602F0CCFB02F0A2FBF862FB6A26
:103EE000134AA2FB03239B0C013BBB62114B124AFA
:103EF0001A60104B40F2E732DA600E4ABB6A536038
:103F00000C4B00221A610B4B00229A60094802F008
:103F1000E1FB0346002B04D1064802F02BFC0346CC
:103F200000E0012318463037BD4680BD003802400E
:103F300083DE1B43884D00200020004080B400AF8A
:103F4000FEE780B400AFFEE780B400AFFEE780B4C8
:103F500000AFFEE780B400AFFEE780B400AF00BF63
:103F6000BD465DF8047B704780B500AF024802F0A3
:103F700020FF00BF80BD00BFE04C002080B500AF37
:103F8000024804F0D3F800BF80BD00BF384B0020CA
:103F900080B500AF034802F00CFF034802F009FFB0
:103FA00000BF80BDA44A0020884D002080B586B0A7
:103FB00000AF7860144A154BD31A7B617B693B6173
:103FC000134B1B68002B02D1114B124A1A60104B85
:103FD0001A687B6813443A699A4207D20AF0F4FBE4
:103FE00003460C221A604FF0FF3309E0084B1B68B0
:103FF000FB60074B1A687B681344054A1360FB6833
:1040000018461837BD4680BD00000220000400009D
:10401000980000202852002080B400AF064BD3F84F
:104020008830054A43F47003C2F8883000BFBD46AB
:104030005DF8047B704700BF00ED00E0DFF834D08E
:104040000D480E490E4A002302E0D458C4500433F0
:10405000C4188C42F9D30B4A0B4C002301E01360C7
:104060000432A242FBD3FFF7D7FF0AF0B3FBFDF700
:10407000D5FA7047000002200000002078000020E0
:10408000A01E01087800002024520020FEE7000056
:1040900080B500AF0E4B1B680D4A43F400731360EC
:1040A0000B4B1B680A4A43F480631360084B1B6880
:1040B000074A43F480731360032000F03EFC0F2096
:1040C000FFF7E4FEFFF73EFC0023184680BD00BF6B
:1040D000003C024080B400AF064B1B781A46064BEA
:1040E0001B681344044A136000BFBD465DF8047B9F
:1040F000704700BF08000020D04D002080B400AF02
:10410000034B1B681846BD465DF8047B704700BF33
:10411000D04D002080B584B000AF7860FFF7EEFF8F
:10412000B8607B68FB60FB68B3F1FF3F05D00A4BCA
:104130001B781A46FB681344FB6000BFFFF7DEFFE5
:104140000246BB68D31AFA689A42F7D800BF00BF8C
:104150001037BD4680BD00BF0800002080B584B088
:1041600000AF78600023FB737B68002B01D1012333
:1041700033E07B681B6C002B09D17868FFF70EFCDD
:104180007B6800225A647B68002283F83C207B68AD
:104190001B6C03F01003002B18D17B681B6C23F4FD
:1041A000885323F0020343F002027B681A647868A4
:1041B00000F01AFA7B6800225A647B681B6C23F0BB
:1041C000030343F001027B681A6401E00123FB73DF
:1041D0007B68002283F83C20FB7B18461037BD46E5
:1041E00080BD000080B485B000AF78600023BB6064
:1041F0007B6893F83C30012B01D10223B2E07B684D
:10420000012283F83C207B681B689B6803F0010354
:10421000012B18D07B681B689A687B681B6842F08A
:1042200001029A60524B1B68524AA2FB03239A0C6C
:1042300013465B001344BB6002E0BB68013BBB60FC
:10424000BB68002BF9D17B681B689B6803F00103F6
:10425000012B7AD17B681B6C23F4E06323F001030C
:1042600043F480727B681A647B681B685B6803F4A4
:104270008063002B07D07B681B6C23F4405343F40E
:1042800080527B681A647B681B6C03F48053B3F51F
:10429000805F06D17B685B6C23F006027B685A6402
:1042A00002E07B6800225A647B68002283F83C208D
:1042B000314BFB607B681B686FF022021A60FB6861
:1042C0005B6803F01F03002B2AD17B681B682B4A15
:1042D000934215D07B681B68294A934205D1264B2F
:1042E0005B6803F01F03002B0AD07B681B68254A1C
:1042F000934236D1204B5B6803F01003002B30D182
:104300007B681B689B6803F04053002B29D17B68B6
:104310001B689A687B681B6842F080429A6020E0C4
:104320007B681B68154A93421BD17B681B689B689E
:1043300003F04053002B14D17B681B689A687B689C
:104340001B6842F080429A600BE07B681B6C43F074
:1043500010027B681A647B685B6C43F001027B6827
:104360005A64002318461437BD465DF8047B704735
:104370000000002083DE1B43002301400020014099
:10438000002101400022014080B483B000AF78607A
:104390007B681B68DB6C18460C37BD465DF8047BF8
:1043A0007047000080B485B000AF786039600023AA
:1043B000BB607B6893F83C30012B01D1022305E1FF
:1043C0007B68012283F83C203B681B68092B25D9B8
:1043D0007B681B68D9683B681B689BB21A4613460A
:1043E0005B0013441E3B072202FA03F3DA437B68A7
:1043F0001B680A40DA607B681B68D9683B689A686A
:104400003B681B689BB2184603465B0003441E3B97
:104410009A407B681B680A43DA6022E07B681B686D
:1044200019693B681B689BB21A4613465B0013442C
:10443000072202FA03F3DA437B681B680A401A6119
:104440007B681B6819693B689A683B681B689BB26C
:10445000184603465B0003449A407B681B680A4386
:104460001A613B685B68062B24D87B681B68596B14
:104470003B685A6813469B001344053B1F2202FA0F
:1044800003F3DA437B681B680A405A637B681B6846
:10449000596B3B681B689BB218463B685A681346C9
:1044A0009B001344053B00FA03F27B681B680A4338
:1044B0005A634CE03B685B680C2B24D87B681B6814
:1044C000196B3B685A6813469B001344233B1F2219
:1044D00002FA03F3DA437B681B680A401A637B68BD
:1044E0001B68196B3B681B689BB218463B685A688F
:1044F00013469B001344233B00FA03F27B681B68BE
:104500000A431A6323E07B681B68D96A3B685A68D0
:1045100013469B001344413B1F2202FA03F3DA4384
:104520007B681B680A40DA627B681B68D96A3B6853
:104530001B689BB218463B685A6813469B0013449D
:10454000413B00FA03F27B681B680A43DA62224BA4
:10455000FB607B681B68214A934209D13B681B685A
:10456000122B05D1FB685B6843F48002FB685A603C
:104570007B681B68194A934223D13B681B68102B48
:1045800003D03B681B68112B1BD1FB685B6843F4AD
:104590000002FB685A603B681B68102B11D1104B5E
:1045A0001B68104AA2FB03239A0C13469B0013447A
:1045B0005B00BB6002E0BB68013BBB60BB68002BDB
:1045C000F9D17B68002283F83C2000231846143779
:1045D000BD465DF8047B7047002301400020014088
:1045E0000000002083DE1B4380B485B000AF7860FC
:1045F000794BFB60FB685B6823F44032FB685A60D0
:10460000FB685A687B685B681A43FB685A607B6882
:104610001B685A687B681B6822F480725A607B684A
:104620001B6859687B681B691A027B681B680A4310
:104630005A607B681B685A687B681B6822F040726E
:104640005A607B681B6859687B689A687B681B683E
:104650000A435A607B681B689A687B681B6822F46F
:1046600000629A607B681B6899687B68DA687B687F
:104670001B680A439A607B689B6A584A934222D01F
:104680007B681B689A687B681B6822F070629A607E
:104690007B681B6899687B689A6A7B681B680A4319
:1046A0009A607B681B689A687B681B6822F040529E
:1046B0009A607B681B6899687B68DA6A7B681B680C
:1046C0000A439A600FE07B681B689A687B681B68E6
:1046D00022F070629A607B681B689A687B681B682E
:1046E00022F040529A607B681B689A687B681B685E
:1046F00022F002029A607B681B6899687B681B7EC7
:104700005A007B681B680A439A607B6893F82030E4
:10471000002B1BD07B681B685A687B681B6842F4BF
:1047200000625A607B681B685A687B681B6822F4C9
:1047300060425A607B681B6859687B685B6A013B12
:104740005A037B681B680A435A6007E07B681B6852
:104750005A687B681B6822F400625A607B681B6899
:10476000DA6A7B681B6822F47002DA627B681B6875
:10477000D96A7B68DB69013B1A057B681B680A43C1
:10478000DA627B681B689A687B681B6822F4007297
:104790009A607B681B6899687B6893F830305A028E
:1047A0007B681B680A439A607B681B689A687B6811
:1047B0001B6822F480629A607B681B6899687B683A
:1047C0005B699A027B681B680A439A6000BF1437D2
:1047D000BD465DF8047B7047002301400100000FD7
:1047E00080B485B000AF78607B6803F00703FB609E
:1047F0000C4BDB68BB60BA684FF6FF031340BB602D
:10480000FB681A02BB68134343F0BF6343F40033F1
:10481000BB60044ABB68D36000BF1437BD465DF877
:10482000047B704700ED00E080B400AF044BDB6810
:104830001B0A03F007031846BD465DF8047B70476A
:1048400000ED00E080B483B000AF0346FB7197F940
:104850000730002B0BDBFB7903F01F02074997F9A8
:1048600007305B09012000FA02F241F8232000BF63
:104870000C37BD465DF8047B704700BF00E100E0E7
:1048800080B483B000AF03463960FB7197F90730FD
:10489000002B0ADB3B68DAB20C4997F907301201AA
:1048A000D2B20B4483F800230AE03B68DAB208492D
:1048B000FB7903F00F03043B1201D2B20B441A76CA
:1048C00000BF0C37BD465DF8047B704700E100E097
:1048D00000ED00E080B489B000AFF860B9607A60A4
:1048E000FB6803F00703FB61FB69C3F10703042BBB
:1048F00028BF0423BB61FB690433062B02D9FB6983
:10490000033B00E000237B614FF0FF32BB6902FAFA
:1049100003F3DA43BB681A407B699A404FF0FF31DA
:104920007B6901FA03F3D9437B680B4013431846B4
:104930002437BD465DF8047B704780B582B000AF78
:1049400078607868FFF74CFF00BF0837BD4680BD30
:1049500080B586B000AF0346B9607A60FB73002370
:104960007B61FFF761FF78617A68B9687869FFF762
:10497000B1FF024697F90F3011461846FFF780FF46
:1049800000BF1837BD4680BD80B582B000AF03467A
:10499000FB7197F907301846FFF754FF00BF08373F
:1049A000BD4680BD80B584B000AF78607B689B6DEC
:1049B000FB60FFF7A3FBB8607B6893F83530DBB290
:1049C000022B08D07B6880225A657B68002283F81E
:1049D0003420012352E07B681B681A687B681B68DF
:1049E00022F016021A607B681B685A697B681B6894
:1049F00022F080025A617B681B6C002B03D17B681C
:104A00009B6C002B07D07B681B681A687B681B684F
:104A100022F008021A607B681B681A687B681B68B2
:104A200022F001021A6013E0FFF768FB0246BB6840
:104A3000D31A052B0CD97B6820225A657B68032288
:104A400083F835207B68002283F83420032315E0A7
:104A50007B681B681B6803F00103002BE4D17B68B3
:104A6000DB6D3F229A40FB689A607B68012283F8E5
:104A700035207B68002283F8342000231846103745
:104A8000BD4680BD80B483B000AF78607B6893F88A
:104A90003530DBB2022B04D07B6880225A650123BB
:104AA0000CE07B68052283F835207B681B681A6858
:104AB0007B681B6822F001021A60002318460C373D
:104AC000BD465DF8047B704780B489B000AF786064
:104AD000396000237B6100233B610023BB6100231D
:104AE000FB616BE10122FB6902FA03F37B613B6826
:104AF0001B687A6913403B613A697B699A4240F0CE
:104B00005A813B685B6803F00303012B05D03B68C7
:104B10005B6803F00303022B30D17B689B68BB61A9
:104B2000FB695B00032202FA03F3DB43BA6913401B
:104B3000BB613B68DA68FB695B0002FA03F3BA69A0
:104B40001343BB617B68BA699A607B685B68BB6131
:104B50000122FB6902FA03F3DB43BA691340BB612C
:104B60003B685B681B0903F00102FB6902FA03F36F
:104B7000BA691343BB617B68BA695A603B685B687A
:104B800003F00303032B17D07B68DB68BB61FB6971
:104B90005B00032202FA03F3DB43BA691340BB61F3
:104BA0003B689A68FB695B0002FA03F3BA69134336
:104BB000BB617B68BA69DA603B685B6803F003033A
:104BC000022B23D1FB69DA087B68083253F82230C4
:104BD000BB61FB6903F007039B000F2202FA03F39A
:104BE000DB43BA691340BB613B681A69FB6903F098
:104BF00007039B0002FA03F3BA691343BB61FB6925
:104C0000DA087B680832B96943F822107B681B68B0
:104C1000BB61FB695B00032202FA03F3DB43BA6961
:104C20001340BB613B685B6803F00302FB695B00F8
:104C300002FA03F3BA691343BB617B68BA691A606D
:104C40003B685B6803F44033002B00F0B480002322
:104C5000FB60604B5B6C5F4A43F4804353645D4B85
:104C60005B6C03F48043FB60FB685B4AFB699B0859
:104C7000023352F82330BB61FB6903F003039B004E
:104C80000F2202FA03F3DB43BA691340BB617B686E
:104C9000524A93422BD07B68514A934225D07B687D
:104CA000504A93421FD07B684F4A934219D07B6889
:104CB0004E4A934213D07B684D4A93420DD07B6895
:104CC0004C4A934207D07B684B4A934201D1072359
:104CD0000EE008230CE006230AE0052308E0042385
:104CE00006E0032304E0022302E0012300E00023A6
:104CF000FA6902F0030292009340BA691343BB6160
:104D00003549FB699B080233BA6941F823203B4BC4
:104D10001B68BB613B69DB43BA691340BB613B68FD
:104D20005B6803F48033002B03D0BA693B691343FB
:104D3000BB61324ABB691360304B5B68BB613B6946
:104D4000DB43BA691340BB613B685B6803F4003323
:104D5000002B03D0BA693B691343BB61274ABB6987
:104D60005360264B9B68BB613B69DB43BA691340C8
:104D7000BB613B685B6803F48013002B03D0BA6906
:104D80003B691343BB611D4ABB6993601B4BDB68E6
:104D9000BB613B69DB43BA691340BB613B685B683D
:104DA00003F40013002B03D0BA693B691343BB61C2
:104DB000124ABB69D360FB690133FB61FB690F2BAE
:104DC0007FF690AE00BF00BF2437BD465DF8047B80
:104DD000704700BF00380240003801400000024028
:104DE0000004024000080240000C02400010024093
:104DF0000014024000180240001C0240003C014028
:104E000080B485B000AF78600B467B807B681A6900
:104E10007B881340002B02D00123FB7301E00023A9
:104E2000FB73FB7B18461437BD465DF8047B704767
:104E300080B483B000AF78600B467B8013467B70F4
:104E40007B78002B03D07A887B689A6103E07B88AB
:104E50001A047B689A6100BF0C37BD465DF8047B7D
:104E60007047000080B584B000AF78607B68002B8D
:104E700001D101232BE17B6893F83D30DBB2002B9D
:104E800006D17B68002283F83C207868FEF7FAFDA3
:104E90007B68242283F83D207B681B681A687B6846
:104EA0001B6822F001021A607B681B681A687B6825
:104EB0001B6842F400421A607B681B681A687B68B2
:104EC0001B6822F400421A6001F0AAFBF8607B68BC
:104ED0005B68814A934207D8FB68804A934294BF3B
:104EE00001230023DBB206E0FB687D4A934294BFB6
:104EF00001230023DBB2002B01D00123E7E0FB6894
:104F0000784AA2FB03239B0CBB607B681B685B6831
:104F100023F03F017B681B68BA680A435A607B68CC
:104F20001B681B6A23F03F017B685B686A4A9342F7
:104F300002D8BB68013309E0BB684FF4967202FBEC
:104F400003F3694AA2FB03239B0901337A681268C1
:104F50000B4313627B681B68DB6923F44F4222F02A
:104F6000FF027B685B685C498B4219D8FB68591E5D
:104F70007B685B685B00B1FBF3F3591C40F6FC7384
:104F80000B40002B0AD0FB68591E7B685B685B00F6
:104F9000B1FBF3F30133C3F30B0351E004234FE000
:104FA0007B689B68002B11D1FB68581E7B68596891
:104FB0000B465B000B44B0FBF3F30133C3F30B036D
:104FC000002B0CBF01230023DBB212E0FB68581E4C
:104FD0007B6859680B469B000B4499000B44B0FB5F
:104FE000F3F30133C3F30B03002B0CBF01230023A6
:104FF000DBB2002B01D0012322E07B689B68002BF1
:105000000ED1FB68581E7B6859680B465B000B4449
:10501000B0FBF3F30133C3F30B0343F400430FE09E
:10502000FB68581E7B6859680B469B000B4499002F
:105030000B44B0FBF3F30133C3F30B0343F44043DE
:10504000796809681343CB617B681B681B6823F090
:10505000C0017B68DA697B681B6A1A437B681B683E
:105060000A431A607B681B689B6823F4034323F0A0
:10507000FF037A6811697A68D26811437A68126806
:105080000B4393607B681B68DB6823F0FF017B6840
:105090005A697B689B691A437B681B680A43DA601C
:1050A0007B681B681A687B681B6842F001021A6003
:1050B0007B6800221A647B68202283F83D207B688D
:1050C00000221A637B68002283F83E2000231846E2
:1050D0001037BD4680BD00BFA08601007F841E0042
:1050E000FF083D0083DE1B43D34D621080B588B0BE
:1050F00002AFF8607A601A460B467B8113463B810B
:10510000FEF7FCFF7861FB6893F83D30DBB2202BA3
:1051100040F0E0807B690093192301227049F86810
:1051200000F058FC0346002B01D00223D3E0FB68BB
:1051300093F83C30012B01D10223CCE0FB68012223
:1051400083F83C20FB681B681B6803F00103012BFC
:1051500007D0FB681B681A68FB681B6842F00102F5
:105160001A60FB681B681A68FB681B6822F40062FF
:105170001A60FB68212283F83D20FB68102283F827
:105180003E20FB6800221A64FB687A685A62FB685A
:105190003A895A85FB685B8D9AB2FB681A85FB6871
:1051A000504ADA6279897B693A6AF86800F0C2FA93
:1051B0000346002B01D001238DE000233B61FB68F7
:1051C0001B685B693B61FB681B689B693B613B69D2
:1051D00066E07A69396AF86800F0D2FC0346002B71
:1051E0000DD0FB681B6C042B07D1FB681B681A6889
:1051F000FB681B6842F400721A6001236BE0FB68D5
:105200005B6A1A78FB681B681A61FB685B6A5A1C48
:10521000FB685A62FB685B8D9BB2013B9AB2FB68EC
:105220005A85FB681B8D013B9AB2FB681A85FB68A7
:105230001B685B6903F00403042B1BD1FB681B8D07
:10524000002B17D0FB685B6A1A78FB681B681A6131
:10525000FB685B6A5A1CFB685A62FB685B8D9BB2F9
:10526000013B9AB2FB685A85FB681B8D013B9AB2E1
:10527000FB681A857A69396AF86800F0C2FC03464F
:10528000002B0DD0FB681B6C042B07D1FB681B683F
:105290001A68FB681B6842F400721A6001231AE066
:1052A000FB681B8D002B94D1FB681B681A68FB6898
:1052B0001B6842F400721A60FB68202283F83D20CC
:1052C000FB68002283F83E20FB68002283F83C2024
:1052D000002300E0022318461837BD4680BD00BFFA
:1052E000020010000000FFFF80B58CB002AFF86034
:1052F0007A601A460B467B8113463B81FEF7FEFE21
:105300007862FB6893F83D30DBB2202B40F00B82D3
:105310007B6A0093192301227C49F86800F05AFB4C
:105320000346002B01D00223FEE1FB6893F83C30DA
:10533000012B01D10223F7E1FB68012283F83C2015
:10534000FB681B681B6803F00103012B07D0FB6897
:105350001B681A68FB681B6842F001021A60FB6850
:105360001B681A68FB681B6822F400621A60FB68FD
:10537000222283F83D20FB68102283F83E20FB6840
:1053800000221A64FB687A685A62FB683A895A8577
:10539000FB685B8D9AB2FB681A85FB685C4ADA622F
:1053A00079897B6A3A6BF86800F046FA0346002B6D
:1053B00001D00123B8E1FB681B8D002B13D1002322
:1053C0003B62FB681B685B693B62FB681B689B690F
:1053D0003B623B6AFB681B681A68FB681B6842F407
:1053E00000721A608CE1FB681B8D012B1BD1FB68DE
:1053F0001B681A68FB681B6822F480621A6000232D
:10540000FB61FB681B685B69FB61FB681B689B6950
:10541000FB61FB69FB681B681A68FB681B6842F448
:1054200000721A606CE1FB681B8D022B1BD1FB68BC
:105430001B681A68FB681B6822F480621A60FB68AC
:105440001B681A68FB681B6842F400621A6000233C
:10545000BB61FB681B685B69BB61FB681B689B6980
:10546000BB61BB694CE1FB681B681A68FB681B6881
:1054700042F480621A6000237B61FB681B685B69F1
:105480007B61FB681B689B697B617B6938E1FB681A
:105490001B8D032B00F2F180FB681B8D012B23D1A8
:1054A0007A6A396BF86800F0EDFB0346002B01D0F7
:1054B000012339E1FB681B681A69FB685B6AD2B299
:1054C0001A70FB685B6A5A1CFB685A62FB681B8D8A
:1054D000013B9AB2FB681A85FB685B8D9BB2013B6E
:1054E0009AB2FB685A850BE1FB681B8D022B4ED1EB
:1054F0007B6A00933B6B00220649F86800F06AFA69
:105500000346002B08D001230EE100BF020010006B
:105510000000FFFF04000100FB681B681A68FB68BD
:105520001B6842F400721A60FB681B681A69FB680A
:105530005B6AD2B21A70FB685B6A5A1CFB685A62DB
:10554000FB681B8D013B9AB2FB681A85FB685B8D7B
:105550009BB2013B9AB2FB685A85FB681B681A69CB
:10556000FB685B6AD2B21A70FB685B6A5A1CFB6804
:105570005A62FB681B8D013B9AB2FB681A85FB6877
:105580005B8D9BB2013B9AB2FB685A85B8E07B6A9F
:1055900000933B6B00226649F86800F01BFA034653
:1055A000002B01D00123BFE0FB681B681A68FB6871
:1055B0001B6822F480621A60FB681B681A69FB682A
:1055C0005B6AD2B21A70FB685B6A5A1CFB685A624B
:1055D000FB681B8D013B9AB2FB681A85FB685B8DEB
:1055E0009BB2013B9AB2FB685A857B6A00933B6B86
:1055F00000224F49F86800F0EDF90346002B01D076
:10560000012391E0FB681B681A68FB681B6842F481
:1056100000721A60FB681B681A69FB685B6AD2B289
:105620001A70FB685B6A5A1CFB685A62FB681B8D28
:10563000013B9AB2FB681A85FB685B8D9BB2013B0C
:105640009AB2FB685A85FB681B681A69FB685B6A3B
:10565000D2B21A70FB685B6A5A1CFB685A62FB681C
:105660001B8D013B9AB2FB681A85FB685B8D9BB270
:10567000013B9AB2FB685A8542E07A6A396BF86856
:1056800000F000FB0346002B01D001234CE0FB6837
:105690001B681A69FB685B6AD2B21A70FB685B6AA6
:1056A0005A1CFB685A62FB681B8D013B9AB2FB686F
:1056B0001A85FB685B8D9BB2013B9AB2FB685A85E9
:1056C000FB681B685B6903F00403042B18D1FB68BB
:1056D0001B681A69FB685B6AD2B21A70FB685B6A66
:1056E0005A1CFB685A62FB681B8D013B9AB2FB682F
:1056F0001A85FB685B8D9BB2013B9AB2FB685A85A9
:10570000FB681B8D002B7FF4C2AEFB68202283F860
:105710003D20FB68002283F83E20FB68002283F8CE
:105720003C20002300E0022318462837BD4680BDF8
:105730000400010080B588B002AFF8607A603B6079
:105740000B467B81FB68DB6A7B617B69082B06D09B
:105750007B69012B03D07B6913F5803F08D1FB687F
:105760001B681A68FB681B6842F480721A600BE0C1
:10577000FB681B6B122B07D1FB681B681A68FB6860
:105780001B6842F480721A603B6800937B680022B9
:105790004FF00111F86800F01DF90346002B0DD001
:1057A000FB681B681B6803F48073B3F5807F03D12B
:1057B000FB684FF400721A64032335E0FB681B6931
:1057C000B3F5804F08D17B89DBB21A46FB681B68B2
:1057D00002F0FE021A611BE07B89DB11DBB203F0F1
:1057E0000603DBB263F00F03DAB2FB681B681A61D1
:1057F0003B687A680E49F86800F043F90346002BCD
:1058000001D0012310E07B89DAB2FB681B681A61C2
:105810003B687A680749F86800F033F90346002BC3
:1058200001D0012300E0002318461837BD4680BD93
:10583000080001000200010080B588B002AFF860E6
:105840007A603B600B467B81FB68DB6A7B61FB68AF
:105850001B681A68FB681B6842F480621A607B69E7
:10586000082B06D07B69012B03D07B6913F5803FA1
:1058700008D1FB681B681A68FB681B6842F48072D9
:105880001A600BE0FB681B6B112B07D1FB681B68D0
:105890001A68FB681B6842F480721A603B680093C8
:1058A0007B6800224FF00111F86800F093F803467E
:1058B000002B0DD0FB681B681B6803F48073B3F5E5
:1058C000807F03D1FB684FF400721A64032379E0F0
:1058D000FB681B69B3F5804F08D17B89DBB243F0CD
:1058E0000103DAB2FB681B681A615FE07B89DB1198
:1058F000DBB203F00603DBB263F00F03DAB2FB683E
:105900001B681A613B687A683049F86800F0B9F89A
:105910000346002B01D0012354E07B89DAB2FB68F7
:105920001B681A613B687A682949F86800F0A9F891
:105930000346002B01D0012344E000233B61FB68B8
:105940001B685B693B61FB681B689B693B613B694A
:10595000FB681B681A68FB681B6842F480721A6057
:105960003B6800937B6800224FF00111F86800F05B
:1059700031F80346002B0DD0FB681B681B6803F44D
:105980008073B3F5807F03D1FB684FF400721A6413
:10599000032317E07B89DB11DBB203F00603DBB2E4
:1059A00063F00E03DAB2FB681B681A613B687A6821
:1059B0000749F86800F065F80346002B01D0012381
:1059C00000E0002318461837BD4680BD08000100DE
:1059D0000200010080B584B000AFF860B9603B60A0
:1059E0001346FB7125E03B68B3F1FF3F21D0FEF782
:1059F00085FB0246BB69D31A3A689A4202D33B68D8
:105A0000002B16D1FB6800221A63FB68202283F862
:105A10003D20FB68002283F83E20FB681B6C43F0AE
:105A20002002FB681A64FB68002283F83C200123F3
:105A300023E0BB681B0CDBB2012B0DD1FB681B689C
:105A40005B69DA43BB6813409BB2002B0CBF012398
:105A50000023DBB21A460CE0FB681B689B69DA4343
:105A6000BB6813409BB2002B0CBF01230023DBB2A9
:105A70001A46FB799A42B6D0002318461037BD4625
:105A800080BD80B584B000AFF860B9607A603B60DB
:105A900051E0FB681B685B6903F48063B3F5806FBA
:105AA00023D1FB681B681A68FB681B6842F400720C
:105AB0001A60FB681B686FF480625A61FB68002201
:105AC0001A63FB68202283F83D20FB68002283F8DC
:105AD0003E20FB681B6C43F00402FB681A64FB6801
